:020000040800F2
:10000000980A002029020008B1130008350F0008E3
:10001000AD1300081F040008E918000800000000E4
:10002000000000000000000000000000111800089F
:1000300023040008000000000F180008131800082F
:10004000430200084302000843020008430200087C
:10005000430200084302000843020008430200086C
:10006000430200084302000843020008430200085C
:10007000430200084302000843020008430200084C
:10008000430200084302000843020008430200083C
:10009000430200084302000843020008430200082C
:1000A000430200084302000843020008430200081C
:1000B000430200084302000843020008430200080C
:1000C00043020008430200084302000843020008FC
:1000D00043020008430200084302000843020008EC
:1000E00043020008430200084302000843020008DC
:1000F00043020008430200084302000843020008CC
:1001000043020008430200084302000843020008BB
:1001100043020008430200084302000843020008AB
:10012000430200084302000843020008430200089B
:10013000430200084302000843020008430200088B
:10014000430200084302000843020008430200087B
:10015000430200084302000843020008430200086B
:10016000430200084302000843020008430200085B
:100170004302000843020008430200080000000098
:10018000430200084302000800F002F800F03CF8C7
:100190000AA090E8000C82448344AAF10107DA45E2
:1001A00001D100F031F8AFF2090EBAE80F0013F0F8
:1001B000010F18BFFB1A43F0010318472821000064
:1001C00048210000103A24BF78C878C1FAD85207F5
:1001D00024BF30C830C144BF04680C6070470000C1
:1001E0000023002400250026103A28BF78C1FBD840
:1001F000520728BF30C148BF0B6070471FB501F0E0
:10020000BFFB1FBD10B510BD00F0D4F81146FFF7BD
:10021000F5FF01F087FB00F0F2F803B4FFF7F2FFFF
:1002200003BC00F0F5F80000094880470948004782
:10023000FEE7FEE7FEE7FEE7FEE7FEE7FEE7FEE796
:10024000FEE7FEE704480549054A064B70470000F3
:10025000D51800088901000898040020980A002099
:10026000980600209806002053EA020C00F06980EE
:100270002DE9F04B4FF00006002B1FBFB3FA83F5BA
:1002800003FA05F424FA05F65E4012BF1643B2FAEB
:1002900082F502FA05F4C5F120051EBF22FA05FC1D
:1002A00044EA0C04203556EA044C4FEA144418BFC3
:1002B000641C4FF000084FF00009904271EB030CF2
:1002C00039D3002919BFB1FA81F701FA07F6B0FA5C
:1002D00080F700FA07F6C7F120071EBF20FA07FCD7
:1002E00046EA0C062037B6FBF4FCA7EB0507103FE7
:1002F00007F01F0BCBF120060CFA0BFB2CFA06F6CD
:1003000044BFB3460026202FA4BF5E464FF0000B2B
:100310005BEA060C08BF4FF0010B19EB0B09ABFBB6
:10032000027C48EB0608C01B06FB02CC0BFB03CC8F
:1003300071EB0C01C1E70B46024641464846BDE859
:10034000F08B13B54FF000004FF00001AFF30080C9
:10035000BDE81C4070474FF0000200B513469446BC
:100360009646203922BFA0E80C50A0E80C50B1F10D
:100370002001BFF4F7AF090728BFA0E80C5048BF21
:100380000CC05DF804EB890028BF40F8042B08BFBF
:10039000704748BF20F8022B11F0804F18BF00F8BB
:1003A000012B704770477047704700000048704746
:1003B000380400207546FFF7F9FFAE460500694690
:1003C000534620F00700854618B020B5FFF73AFFE6
:1003D000BDE820404FF000064FF000074FF0000846
:1003E0004FF0000B21F00701AC46ACE8C009ACE8C7
:1003F000C009ACE8C009ACE8C0098D46704710B52B
:100400000446AFF300802046BDE81040FFF705BF6B
:1004100001491820ABBEFEE726000200704700BF6E
:10042000FEE7704700EB8001480003E000BF00BF1B
:1004300000BF00BF011EA0F10100F7D1704772B6E6
:1004400000BFFEE7F8B502460B4600250024002059
:100450000021D6E0012606FA01F51E6806EA050429
:10046000AC4274D11E7906F00306012E04D01E7929
:1004700006F00306022E13D190684F000326BE40FB
:10048000B0434F00DE68BE403043906050680126A4
:100490008E40B0431E79C6F300168E403043506044
:1004A0001E7906F00306032E09D0D0684F000326FC
:1004B000BE40B0434F009E68BE403043D0601E79BE
:1004C00006F00306022E13D1CF0802F1200656F8DB
:1004D00027004E07F70E0F26BE40B0434F07FF0E12
:1004E0001E69BE403043CF0802F1200646F82700BF
:1004F00010684F000326BE40B0431E7906F0030685
:100500004F00BE40304310605E6806F44036002E57
:1005100076D000BF002600963C4E366846F48046F2
:100520003A4F3E603E46366806F48046009600BF6D
:1005300000BF374E8F0856F827008E07370F0F265B
:10054000BE40B043334EB24202D1002624E057E011
:10055000314EB24201D101261EE0304EB24201D1ED
:10056000022619E02E4EB24201D1032614E02D4E90
:10057000B24201D104260FE02B4EB24201D1052632
:100580000AE02A4EB24201D1062605E0284EB242C8
:1005900001D1072600E008268F073F0FBE403043F9
:1005A0001B4E8F0846F82700224E3068A0435E6835
:1005B00006F4801606B120431E4E3060361D3068AA
:1005C000A0435E6806F4001606B12043194E361D9E
:1005D0003060184E361F3068A0435E6806F400365F
:1005E00006B12043134E361F3060361F3068A043DB
:1005F0005E6806F4803606B120430E4E083E306039
:10060000491C1029FFF426AFF8BD00004438024011
:100610000838014000000240000402400008024087
:10062000000C02400010024000140240001802407A
:10063000001C0240083C0140024613690B400BB10C
:10064000012000E00020704710B5426921EA020352
:1006500002EA010443EA0443836110BD0AB18161E7
:1006600001E00B0483617047014800687047000097
:100670000C00002003480068034909780844014938
:10068000086070470C0000201400002010B50D48D1
:10069000006840F400700B4908600846006840F4A8
:1006A000806008600846006840F48070086003209D
:1006B00000F096F8002000F007F800F02BF800207A
:1006C00010BD0000003C024070B504460E480078A2
:1006D0004FF47A71B1FBF0F00C490968B1FBF0F509
:1006E000284600F00DFC08B1012070BD102C07D287
:1006F00000222146501E00F035F80548046001E054
:100700000120F2E70020F0E714000020180000208C
:100710001000002008B500BF0020009010480068BD
:1007200040F480400E4908600846006800F48040AC
:10073000009000BF00BF00BF00200090081F0068AD
:1007400040F08050091F08600846006800F08050A3
:10075000009000BF00BF052000F042F808BD000077
:10076000443802402DE9F05F80460D4616460027CA
:1007700001F0BCF8074639462A46334601F0070027
:10078000C0F1070ABAF1040F02D94FF0040A01E0E0
:10079000C0F1070AD14600F1040ABAF1070F02D2EC
:1007A0004FF0000A01E0A0F1030AD4464FF0010A1D
:1007B0000AFA09FAAAF1010A0AEA020A0AFA0CFA82
:1007C0004FF0010B0BFA0CFBABF1010B0BEA030B27
:1007D0004AEA0B042146404601F090F8BDE8F09F3C
:1007E00000BF00F00702064B19684FF6FF031940DF
:1007F000044B0B4343EA0221014B196000BF7047D1
:100800000CED00E00000FA0570B504460D460CB989
:10081000012070BD5848006800F00700A84209D2C6
:1008200055490D700846006800F00700A84201D045
:100830000120EEE7207800F0020002281DD1207888
:1008400000F00400042805D14C48006840F4E05052
:100850004A490860207800F00800082805D1474878
:10086000006840F46040454908604448006820F052
:10087000F000A168084341490860207800F00100B9
:10088000A8B36068012807D13C4808380068C0F365
:100890004040B8B90120BCE76068022802D0606817
:1008A000032807D1354808380068C0F3406048B9CC
:1008B0000120AEE7314808380068C0F3400008B9AD
:1008C0000120A6E72D48006820F003006168084376
:1008D0002A490860FFF7C8FE064609E0FFF7C4FE94
:1008E000801B41F28831884202D9032091E707E05A
:1008F0002248006800F00C006168B0EB810FEDD178
:100900001D48006800F00700A84209D91A490D7077
:100910000846006800F00700A84201D0012078E7EF
:10092000207800F00400042807D11448006820F45F
:10093000E050E168084311490860207800F00800A1
:10094000082808D10D48006820F46040216940EA79
:10095000C1000A49086000F019F808490968C1F3A4
:100960000311074A515CC840064908600648006800
:10097000FFF7AAFE00204CE7003C02400838024086
:100980008A19000818000020100000202DE9F04707
:10099000002400250026A1462548006800F00C0030
:1009A00020B1042805D008283AD105E0DFF884906A
:1009B00039E0DFF8849036E01D48001F006800F041
:1009C0003F041B48001F006800F4800078B11A48FB
:1009D0001749091F0968C1F38811A0FB017001467E
:1009E000224600233846FFF73FFC05460EE011483B
:1009F0000F49091F0968C1F38811A0FB0170014666
:100A0000224600233846FFF72FFC05460848001F02
:100A10000068C0F30140401C4600B5FBF6F902E057
:100A2000DFF8109000BF00BF4846BDE8F087000027
:100A3000083802400024F40000127A00F8B5044699
:100A40000CB90120F8BD207800F00100002874D016
:100A5000F948006800F00C0004280DD0F648006842
:100A600000F00C00082813D1F348001F006800F4C0
:100A70008000B0F5800F0BD1EF4808380068C0F354
:100A80004040002859D06068002856D10120D9E79D
:100A900000BF6068B0F5803F08D1E74808380068BB
:100AA00040F48030E449083908601EE06068B0F521
:100AB000A02F0DD1E0480838006840F48020DE49BE
:100AC000083908600846006840F4803008600CE08F
:100AD000D9480838006820F48030D74908390860C0
:100AE0000846006820F48020086000BF606890B16C
:100AF000FFF7BAFD054606E0FFF7B6FD401B642888
:100B000001D903209EE7CC4808380068C0F3404074
:100B10000028F1D011E0FFF7A7FD054606E0FFF73A
:100B2000A3FD401B642801D903208BE7C248083885
:100B30000068C0F340400028F1D1207800F00200A6
:100B400002285FD1BC48006800F00C0058B1BA48D8
:100B5000006800F00C0008281CD1B748001F00688E
:100B600000F48000B0B9B44808380068C0F3400011
:100B700020B1E068012801D0012063E7AE480838C1
:100B8000006820F0F800216940EAC100AA4908394C
:100B9000086037E0E06800B30120A8490860FFF76B
:100BA00063FD054606E0FFF75FFD401B022801D903
:100BB000032047E7A04808380068C0F34000002839
:100BC000F1D09D480838006820F0F800216940EA1B
:100BD000C10099490839086014E00020974908606D
:100BE000FFF742FD054606E0FFF73EFD401B0228E9
:100BF00001D9032026E7904808380068C0F3400078
:100C00000028F1D1207800F0080008282CD1606974
:100C1000A8B101208A490860FFF726FD054606E0D5
:100C2000FFF722FD401B022801D903200AE7824872
:100C30006C300068C0F340000028F1D014E00020C0
:100C40007F490860FFF710FD054606E0FFF70CFD41
:100C5000401B022801D90320F4E677486C30006875
:100C6000C0F340000028F1D1207800F004000428EF
:100C700070D1002770483830006800F0805090B97B
:100C800000BF002000906C483830006840F0805071
:100C90006949383108600846006800F080500090CB
:100CA00000BF00BF01276748006800F48070B0B93A
:100CB0006448006840F4807062490860FFF7D4FC23
:100CC000054606E0FFF7D0FC401B022801D90320AF
:100CD000B8E65C48006800F480700028F2D000BFDD
:100CE000A068012808D154486830006840F001002D
:100CF0005149683108601DE0A06805280DD14E48B3
:100D00006830006840F004004B49683108600846CC
:100D1000006840F0010008600CE047486830006857
:100D200020F001004449683108600846006820F05E
:100D30000400086000BFA068A8B1FFF795FC054655
:100D400009E0FFF791FC401B41F28831884202D94B
:100D5000032077E626E0384868300068C0F340009A
:100D60000028EED013E0FFF77FFC054608E0FFF710
:100D70007BFC401B41F28831884201D9032061E6A7
:100D80002D4868300068C0F340000028EFD1012FE3
:100D900007D129483830006820F080502649383182
:100DA000086000BFA069002845D02348006800F013
:100DB0000C0008285DD0A069022845D100201F49F9
:100DC0000866FFF751FC054606E0FFF74DFC401BA7
:100DD000022801D9032035E6174808380068C0F317
:100DE00040600028F1D1D4E907010843616A40EA74
:100DF00081110122A06AC2EB500041EA00412C207F
:100E0000005D41EA00600C49091F086001200B49A0
:100E10000866FFF729FC054606E0FFF725FC401BA6
:100E2000022801D903200DE6034808380068C0F302
:100E300040600028F1D049E00838024000004742F5
:100E4000800E474200700040002021490866FFF7ED
:100E50000BFC054606E0FFF707FC401B022801D902
:100E60000320EFE51B480068C0F340600028F2D182
:100E70002CE0A069012800D1E4E51648001D0668B1
:100E8000A069012820D006F48001E06981421BD1CD
:100E900006F03F01206A814216D147F6C07030400B
:100EA000616AB0EB811F0FD106F440310122A06AC4
:100EB000C2EB5000B1EB004F06D106F070612C2060
:100EC000005DB1EB006F01D00120BBE50020B9E56A
:100ED000000047420038024010B508480068401C36
:100EE0000649086000F064F80448006842F2107196
:100EF000884202D100200149086010BD080000208E
:100F000070B504462546681EB0F1807F01D30120EC
:100F10000FE0681E4FF0E02148610F214FF0FF30D5
:100F200000F0ECFC00204FF0E02188610720086110
:100F3000002070BD00BFFEE702460748805C084005
:100F400040B1012904D00448805C8843024B985486
:100F5000012070470020FCE71C00002010B504466B
:100F600034B908211148FFF767FBE0B9012010BD33
:100F7000012C06D110210D48FFF75EFB98B9012026
:100F8000F5E7022C06D140210848FFF755FB50B980
:100F90000120ECE7032C06D180210448FFF74CFB2D
:100FA00008B90120E3E70020E1E70000000002406B
:100FB00010B50020A349087016E0A348A14909789C
:100FC00030F8110000280ADD9F489E49097830F862
:100FD0001100401E9C499B4A127821F81200994842
:100FE0000078401C97490870964800780428E4DB94
:100FF00096480078401C95490870084600781428E7
:1010000071DB002008708F49087015E190488D4908
:101010000978415C8F488B4A12788154894800785E
:10102000FFF79CFF8A49874A127888540846854909
:101030000978405C01280AD1874882490978405CD8
:1010400040F0010084497F4A1278885409E08248C0
:101050007C490978405C20F001007F49794A127888
:1010600088547B4877490978405C01280ED179483B
:1010700074490978405C48B9774872490978405CFE
:1010800040F0020174486F4A1278815470486D49EB
:101090000978405C78B96F486A490978405C012852
:1010A00009D16D4867490978405C40F004016A48FD
:1010B000644A12788154694862490978405C98B959
:1010C000634860490978405C01280BD14FF4FA600D
:1010D0005D495C4A127821F8120001205F49594AA3
:1010E00012788854A3E0ACE05C4856490978405C2B
:1010F00001282DD1564853490978405C58B9C82079
:101100005149504A127821F81200022053494D4AA1
:10111000127888548BE04C484A49097830F811001D
:10112000002814D164204849464A127821F8120058
:10113000494844490978405C40F020004649414A0A
:1011400012788854042045493E4A127888546EE04B
:1011500042483C490978405C02282BD13C48394937
:101160000978405C01280FD13B4836490978405C3A
:1011700040F010003849334A127888540320374928
:10118000304A1278885452E02F482E49097830F8B6
:101190001100F8B930482B490978405C40F008004C
:1011A0002D49284A1278885400202C49254A127863
:1011B00088543CE0294823490978405C03280AD137
:1011C000234820490978405C20B9002023491D4A62
:1011D000127888542BE021481A490978405C042889
:1011E00025D11B4817490978405C28B900201B49C4
:1011F000144A127888541AE013481249097830F8D2
:101200001100A0B9642010490E4A127821F812008A
:1012100011480C490978405C40F040000E49094AE9
:101220001278885404200D49064A127888540548DB
:101230000078401C03490870024800780428FFF633
:10124000E5AE10BD210000202E000020200000206F
:1012500022000020260000201C0000202A00002080
:1012600000B587B0142102A8FFF775F800BF002071
:1012700001904948006840F004004749086008466A
:10128000006800F00400019000BF00BF00BF002014
:1012900001900846006840F0200008600846006899
:1012A00000F02000019000BF00BF00BF00200190AF
:1012B0000846006840F0800008600846006800F0BA
:1012C0008000019000BF00BF00BF002001900846D1
:1012D000006840F0010008600846006800F0010066
:1012E000019000BF00BF00BF0020019008460068C9
:1012F00040F0400008600846006800F0400001909F
:1013000000BF00BF00BF002001900846006840F009
:10131000020008600846006800F00200019000BF6B
:1013200000BF01224FF4C0411C48FFF797F900228B
:101330004FF440711A48FFF791F9C0200290002045
:1013400003900120049002A91648FFF77BF8D820EB
:101350000290002003900120049002A91248FFF798
:1013600071F84FF4C04002900120039000200490D7
:10137000059002A90948FFF765F84FF44070029004
:1013800001200390002004900220059002A9044847
:10139000FFF758F807B000BD30380240001802408F
:1013A00000040240001402400000024000BFFEE7BB
:1013B00000BFFEE700200CE0002106E00022064B03
:1013C00003EBC0135A544A1CD1B28029F6DB421CED
:1013D000D0B20828F0DB7047380000202DE9F04338
:1013E00004460D4616461F46284638E0224631E0A0
:1013F000002A2DDB7F2A2BDC002829DB3F2827DC75
:101400004FEAE07C00EB5C7C4FEAEC0CDFF85880A4
:1014100008EBCC1C1CF802C003464FEAE07800EB56
:1014200058784FEAE808A0EBC8094FF0010808FA1D
:1014300009F82CEA080C01464FEAE07800EB5878EE
:101440004FEAE808DFF8209009EBC81808F802C056
:10145000511C0AB2A1199142CADC411C08B2E91917
:101460008142C3DCBDE8F0833800002070B5002461
:1014700006E0002500E06D1CB5F57A7FFBD3641C07
:10148000B4F57A7FF5D3012000F06EF9012000F069
:1014900081F970BD70B50546002411E0802121411D
:1014A000294009B1012100E00021084600F072F94D
:1014B000012000F059F9002000F056F9601CC4B278
:1014C000082CEBDB012000F04FF9002000F04CF974
:1014D00070BD10B5012000F05DF9012000F044F965
:1014E000002000F057F9002000F03EF910BD10B5C3
:1014F000002000F04FF9012000F036F9012000F043
:1015000049F910BD10B5FFF7B1FFAE2000F058F952
:10151000D52000F055F9802000F052F9A82000F005
:101520004FF93F2000F04CF9D32000F049F900209A
:1015300000F046F9402000F043F9A12000F040F906
:10154000C82000F03DF9DA2000F03AF9122000F04E
:1015500037F9812000F034F9CF2000F031F9D9209B
:1015600000F02EF9F12000F02BF9DB2000F028F933
:10157000302000F025F9A42000F022F9A62000F088
:101580001FF98D2000F01CF9142000F019F9AF208C
:1015900000F016F9FFF70EFF00F0D2F810BD70B59D
:1015A00005460C4645F0B00000F00AF9102141EA6A
:1015B000141000F005F904F00F0000F001F970BDFF
:1015C000F8B506460F4614461D46082D0CD1A4F169
:1015D00020000E4901EB001010230822394600902C
:1015E000304600F017F80FE0062D0DD1A4F12000D1
:1015F00000EB4000064901EB400008230622394673
:101600000090304600F006F8F8BD0000A21900086E
:10161000921F00082DE9FF4F80460E469146DDF8E7
:1016200034B0002500244A4631464046039BFFF76C
:10163000D5FE00BF5EE0002558E008EB050000285D
:1016400052DB08EB05007F284EDC3046F11706EB35
:101650005171C9100FB2F11706EB5171C910A6EB09
:10166000C10A002E05DA781E07B20AF108000FFA47
:1016700080FA3819002817DB3819072814DC3819C4
:10168000224901EBC01008EB0501405C04FB095145
:101690001BF8011001FA0AF1084339191B4A02EB41
:1016A000C11108EB050288543819401C00281BDBC7
:1016B0003819401C072817DC3819401C134901EB66
:1016C000C01008EB0501405C04FB09511BF8011038
:1016D000CAF10802114108433919491C0B4A02EBAF
:1016E000C11108EB05028854681CC5B24D45A4DB46
:1016F000601CC4B20399481EC11700EB517101224E
:1017000002EBE101A14296DCBDE8FF8F380000202A
:101710002DE9F0410646884615461F46002409E09B
:101720002A5D04FB076108B23B464146FFF748FFCC
:10173000601CC4B2285D0028F2D1BDE8F081000031
:1017400010B500240BE000212046FFF728FF0549D3
:1017500001EBC410802100F043F8601CC4B2082CD7
:10176000F1DB10BD3800002010B504462CB1012279
:1017700011020748FEF772FF05E000224FF4807166
:101780000348FEF76BFF0120FEF74CFE10BD000082
:101790000004024010B504462CB101225102074852
:1017A000FEF75CFF05E000224FF400710348FEF7EE
:1017B00055FF0120FEF736FE10BD00000004024078
:1017C00010B50446FFF785FE7820FFF763FE002082
:1017D000FFF760FE2046FFF75DFEFFF788FE10BDB5
:1017E00070B505460E46FFF774FE7820FFF752FEEF
:1017F0004020FFF74FFE002404E0285DFFF74AFE7B
:10180000601CC4B2B442F8DBFFF771FE70BD7047D4
:10181000704710B5FEF72EFFFFF75EFB10BD00000E
:1018200000B593B0302107A8FEF795FD142102A85A
:10183000FEF791FD00BF002001902448006840F0B1
:101840008050224908600846006800F080500190EE
:1018500000BF00BF00BF002001901D48006840F499
:1018600080401B4908600846006800F480400190F1
:1018700000BF00BF012007900004089002200D90D7
:1018800041050E9104210F91A8211091022111917F
:101890000421129107A8FFF7D1F808B1FEF7CFFD98
:1018A0000F20029002200390002004904FF4A050DB
:1018B00005904FF480500690052102A8FEF7A4FF82
:1018C00008B1FEF7BCFD13B000BD00004038024077
:1018D000007000400348006840F47000014908604F
:1018E0007047000088ED00E000BFFEE70248006896
:1018F000C0F30220704700000CED00E010B5002896
:1019000004DB0A07130E054A135406E00A07140EF7
:10191000034A00F00F031B1FD45410BD00E400E085
:1019200018ED00E0FEF7B2FEFFF77AFFFFF798FC34
:101930000F4800684FF47A71B0FBF1F42046FFF7CE
:10194000DFFAFFF7DFFD08230AA200210846FFF7B0
:10195000DFFE0BE008210020FFF7EEFA20B14FF484
:1019600000510648FEF770FEFFF7EAFEF2E70000BE
:10197000180000203230323500000000001802400C
:101980004FF04070E1EE100A7047000000000000C8
:10199000000001020304060708090000000001021C
:1019A0000304000000000000000000000000000030
:1019B0000000000000F800000000000000333000CC
:1019C000000000160E00160E0000000000000000CF
:1019D000000040C07840C0784000043F04043F0449
:1019E0000400007088FC08300000001820FF211E51
:1019F0000000F008F000E018000000211C031E2188
:101A00001E0000F00888700000001E212324192702
:101A10002110000000160E00000000000000000071
:101A20000000000000E01804020000000007182079
:101A3000400000020418E0000000004020180700E9
:101A40000000404080F0804040000202010F01028F
:101A50000200000000F0000000000101011F010170
:101A60000100000000000000000000B07000000055
:101A70000000000000000000000000010101010161
:101A800001010000000000000000003030000000F4
:101A900000000000000080601804006018060100CB
:101AA000000000E010080810E000000F10202010D7
:101AB0000F00001010F8000000000020203F202040
:101AC00000000070080808887000003028242221D7
:101AD000300000300888884830000018202020118D
:101AE0000E000000C02010F8000000070424243F6E
:101AF000240000F808888808080000192120201117
:101B00000E0000E0108888180000000F112020113E
:101B10000E0000380808C83808000000003F000028
:101B200000000070880808887000001C2221212213
:101B30001C0000E010080810E00000003122221113
:101B40000F00000000C0C0000000000000303000A6
:101B50000000000000C0C0000000000080B0700065
:101B6000000000008040201008000001020408105E
:101B7000200040404040404040000404040404046D
:101B8000040000081020408000000020100804021B
:101B90000100007048080808F0000000003036011D
:101BA0000000C030C828E810E000071827242314DC
:101BB0000B000000C038E0000000203C2302022798
:101BC000382008F8888888700000203F20202011E5
:101BD0000E00C03008080808380007182020201020
:101BE000080008F808080810E000203F2020201016
:101BF0000F0008F88888E8081000203F20202320E4
:101C0000180008F88888E8081000203F200003002A
:101C10000000C03008080838000007182020221EE5
:101C2000020008F808000008F808203F21010121FF
:101C30003F20000808F8080800000020203F20206E
:101C4000000000000808F8080800C08080807F00BD
:101C5000000008F888C028180800203F2001263816
:101C6000200008F8080000000000203F202020206D
:101C7000300008F8F800F8F80800203F003F003F67
:101C8000200008F830C00008F808203F200007189E
:101C90003F00E01008080810E0000F10202020107E
:101CA0000F0008F808080808F000203F2101010192
:101CB0000000E01008080810E0000F182424385035
:101CC0004F0008F8888888887000203F2000030CA7
:101CD00030200070880808083800003820212122B0
:101CE0001C00180808F8080818000000203F200011
:101CF000000008F808000008F808001F2020202035
:101D00001F000878880000C83808000007380E0156
:101D10000000F80800F80008F800033C0700073C42
:101D20000300081868808068180820302C03032CF2
:101D300030200838C800C83808000000203F2000C4
:101D4000000010080808C838080020382621202084
:101D50001800000000FE020202000000007F404068
:101D60004000000C30C000000000000000010638F8
:101D7000C00000020202FE000000004040407F0060
:101D800000000020100804081020000000000000DF
:101D90000000000000000000000080808080808043
:101DA0008080000204080000000000000000000025
:101DB0000000000080808080000000192422222280
:101DC0003F2008F8008080000000003F1120201113
:101DD0000E000000008080800000000E11202020F6
:101DE0001100000000808088F800000E11202010F3
:101DF0003F200000808080800000001F22222222DD
:101E00001300008080F0888888180020203F202060
:101E100000000000808080808000006B9494949388
:101E2000600008F8008080800000203F2100002032
:101E30003F2000809898000000000020203F2020D4
:101E40000000000000809898000000C08080807F23
:101E5000000008F8000080808000203F24022D3020
:101E60002000000808F8000000000020203F20208B
:101E700000008080808080808000203F20003F2004
:101E8000003F008080008080000000203F21002073
:101E90003F200000808080800000001F2020202044
:101EA0001F00808000808000000080FFA1202011A2
:101EB0000E000000008080808000000E112020A015
:101EC000FF80808080008080800020203F212000D3
:101ED00001000000808080808000003324242424BE
:101EE0001900008080E0808000000000001F20209A
:101EF00000008080000000808000001F2020201053
:101F00003F20808080000080808000010E30080625
:101F1000010080800080008080800F300C030C3036
:101F20000F0000808000808080000020312E0E3164
:101F30002000808080000080808080818E70180664
:101F4000010000808080808080000021302C2221D0
:101F5000300000000000807C020200000000003F12
:101F6000404000000000FF00000000000000FF00F3
:101F700000000002027C800000000040403F0000A2
:101F80000000008040408000008000000000000150
:101F900001000000000000000000002F0000000011
:101FA0000700070000147F147F1400242A7F2A12E0
:101FB00000231308646200364955225000000007D0
:101FC000000000001C224100000041221C000014FF
:101FD000083E08140008083E0808000000A0600041
:101FE00000080808080800006060000000201008D1
:101FF0000402003E5149453E0000427F400000423D
:1020000061514946002141454B31001814127F109F
:10201000002745454539003C4A49493000017109CE
:10202000050300364949493600064949291E000082
:102030003636000000005636000000081422410029
:102040000014141414140000412214080002015159
:102050000906003E4955592E007C1211127C007F62
:1020600049494936003E41414122007F4141221CFD
:10207000007F49494941007F09090901003E414962
:10208000497A007F0808087F0000417F4100002056
:1020900040413F01007F08142241007F4040404002
:1020A000007F020C027F007F0408107F003E414148
:1020B000413E007F09090906003E4151215E007F33
:1020C000091929460046494949310001017F0101AA
:1020D000003F4040403F001F2040201F003F40384D
:1020E000403F00631408146300070870080700618C
:1020F0005149454300007F4141000002040810207F
:10210000000041417F000004020102040040404001
:102110004040000001020400002054545478007F25
:102120004844443800384444442000384444487FFC
:1021300000385454541800087E0901020018A4A461
:10214000A47C007F080404780000447D4000004027
:1021500080847D00007F102844000000417F400003
:10216000007C04180478007C080404780038444497
:10217000443800FC242424180018242418FC007C73
:102180000804040800485454542000043F444020EC
:10219000003C4040207C001C2040201C003C403083
:1021A000403C004428102844001CA0A0A07C00440F
:1021B00064544C440000087F41000000007F000090
:1021C0000000417F0800000804081008A3AC0000CC
:1021D00000000000000000000000000000000000FF
:1021E000005838000000000000000000000000A1BE
:1021F000A30000000000000000000000000000003C
:102200000000000018242418000000000000000056
:102210000000C4E300008060F8074020180F08C8E1
:102220000808281800010000FF00100C0340807F00
:102230000001061800BAC3001010F01F10F0008053
:102240008282E2928A868000402215081661000090
:1022500040807F0000000000CAC000202020FE2037
:1022600020FF202020FF20202020000000007F40B1
:102270004047444444474040400000BDE700000060
:1022800000FE929292FE929292FE000000000808D8
:102290000484621E010001FE02040408080000001C
:1022A00000FF0101013109090909897101010101D9
:1022B000FFFF808080808080968180808080808009
:1022C000FFFF01818181FD8991A1C1FD8181810192
:1022D000FFFF808080809F888482819F80808080B3
:1022E000FF00000004230008000000203800000068
:1022F000C40100083C23000838000020600A0000E8
:10230000E0010008000000000000000000000000E4
:102310000000000010000000010000000024F40094
:1023200000000000000000000000000000000000AD
:0C233000000000000000000000000000A1
:040000050800018965
:00000001FF
